:020000040800F2
:10000000281500209D010008D3130008B71200082E
:10001000D1130008A90200086117000800000000C1
:10002000000000000000000000000000D7130008DE
:10003000F502000800000000D5130008D9130008DD
:10004000B7010008B7010008B7010008B7010008B0
:10005000B7010008B7010008B7010008B7010008A0
:10006000B7010008B7010008B7010008B701000890
:10007000B7010008B7010008B7010008B701000880
:10008000B7010008B7010008B7010008C502000861
:10009000AD020008B9020008B7010008B701000866
:1000A000B7010008B7010008B7010008B701000850
:1000B000B7010008B7010008B7010008B701000840
:1000C000B7010008B7010008B7010008B701000830
:1000D000B70100084917000855170008B7010008C4
:1000E000B7010008B7010008B7010008B701000810
:1000F000B7010008B7010008B7010008B701000800
:10010000B7010008B7010008B7010008B7010008EF
:10011000B7010008B7010008B7010008B7010008DF
:10012000B7010008B7010008B7010008B7010008CF
:10013000B7010008B7010008B7010008E90200088C
:10014000D1020008DD020008B7010008B70100086D
:10015000B7010008B7010008B7010008B70100089F
:10016000B7010008B7010008B7010008B70100088F
:10017000B7010008B7010008B7010008000000003F
:10018000B7010008B7010008DFF80CD000F07AF8DA
:1001900000480047A117000828150020064880479E
:1001A00006480047FEE7FEE7FEE7FEE7FEE7FEE75C
:1001B000FEE7FEE7FEE7FEE7651400088901000898
:1001C0002DE9F05F0546002092469B46884606468C
:1001D000814640241BE0284641464746224600F01F
:1001E00041F853465A46C01A914110D31146184659
:1001F000224600F028F82D1A67EB01084F462246E8
:100200000120002100F01FF817EB00094E41201ECD
:10021000A4F10104DFDC484631462A464346BDE8E6
:10022000F09FD2B201E000F8012B491EFBD27047CB
:100230000022F6E710B513460A4604461946FFF7B2
:10024000F0FF204610BD202A04DB203A00FA02F11C
:10025000002070479140C2F1200320FA03F31943B4
:1002600090407047202A04DB203A21FA02F0002156
:10027000704721FA02F3D040C2F1200291400843B6
:1002800019467047064C074D06E0E06840F0010350
:1002900094E8070098471034AC42F6D3FFF778FF94
:1002A000F817000818180008FEE70000014800F0E1
:1002B00023B800001C000020014800F01DB8000019
:1002C0001C000020014800F017B800001C000020AE
:1002D000014800F011B8000044000020014800F07F
:1002E0000BB8000044000020014800F005B80000F1
:1002F00044000020704770472DE9F05F0546006814
:1003000000244669D0F804908768D0F80CB0D0F883
:1003100010A0D0F81880F10748D0F90714D00121B7
:100320008160B80703D5284600F016FA0CE078077C
:1003300002D54FF4006407E0380702D54FF480542B
:1003400002E0284600F007FAF80516D529684FF4B0
:1003500080708860B80503D5284600F0FFF90CE0EE
:10036000780502D544F4005407E0380502D544F47A
:10037000804402E0284600F0F0F9F80316D5296819
:100380004FF480308860B80303D5284600F0E8F9C0
:100390000CE0780302D544F4004407E0380302D5AA
:1003A00044F4803402E0284600F0D9F9300707D53C
:1003B0005FEACB6004D52968102044F40074C8605B
:1003C00070074FF0080707D55FEA0B7004D528685F
:1003D000C760284600F0BAF9B00706D52868C0689B
:1003E000800702D0284600F0B2F9700607D55FEA10
:1003F000CA6004D52968102044F480640861B006FE
:1004000007D55FEA0A7004D528680761284600F01E
:100410009FF9F00606D528680069800702D02846B3
:1004200000F097F9B00308D55FEAC96005D52968DF
:1004300010204860284600F08DF9F00307D55FEAE8
:10044000097004D528684760284600F08AF930040E
:1004500046D55FEA497040D5F00504D55FEAC8701B
:1004600001D044F00104B00504D55FEA887001D5DD
:1004700044F00204700504D55FEA487001D544F0E9
:100480000404300529D518F0700F26D008F070004C
:10049000402815D006DC102809D020280AD03028A2
:1004A00016D10AE050280ED0602811D10EE044F099
:1004B00008040DE044F010040AE044F0200407E0D2
:1004C00044F0400404E044F0800401E044F480740B
:1004D0002868816921F070018161296804204860E1
:1004E000002C05D0686A204368622846FFF703FFA6
:1004F000BDE8F09F70B5040003D094F8200010B15F
:1005000004E0012070BD204600F082F820680168F8
:1005100021F00201016000F013FA0546052604E00F
:1005200000F00EFA401B0A2811D8206840688007A6
:10053000F6D42068016841F00101016000F000FA82
:1005400005460BE000F0FCF9401B0A2806D9606A5A
:1005500040F40030606284F82060D2E72068406890
:10056000C007EFD0207E0128206801683DD021F02F
:1005700080010160607E01282068016838D021F088
:1005800040010160A07E01282068016833D021F07D
:1005900020010160E07E0128206801682ED041F032
:1005A00010010160207F01282068016829D021F016
:1005B00008010160607F01282068016824D021F0D3
:1005C00004010160D4E902010843D4E90412114393
:1005D00008436168491E08432168C86100206062C1
:1005E000012084F82000002070BD41F08001C0E7A8
:1005F00041F04001C5E741F02001CAE721F01001B8
:10060000CFE741F00801D4E741F00401D9E7000049
:10061000F0B587B0044614216846FFF709FE464B43
:100620004648DFF810E11968D4F800C0434A0325B2
:100630000226092710300024491CF44532D11960E4
:10064000012907D1016841F000710160006800F0E4
:1006500000700590106840F0080010601068CDE947
:10066000005600F00800CDE9047069463448CDE931
:10067000024500F089F800221146132000F0CEF95F
:10068000132000F0BDF900221146142000F0C6F935
:10069000142000F0B5F900221146152000F0BEF933
:1006A000152042E0DFF89CE0F44540D1D0F800C0CE
:1006B0004CF0806CC0F800C0D0F800C001290CF0EC
:1006C000806CCDF814C0196007D1016841F0007149
:1006D0000160006800F000700590106840F00200B2
:1006E0001060106802AB00F0020005906020CDE9B8
:1006F000000683E8B0006946134800F045F8002280
:1007000011463F2000F08AF93F2000F079F90022DD
:100710001146402000F082F9402000F071F90022DB
:100720001146412000F07AF9412000F069F907B044
:10073000F0BD000000640040080000203038024096
:10074000000C0240006800400004024070477047FF
:1007500070477047704770477047704770477047E1
:100760007047704790F83510022903D08021416509
:1007700001207047052180F835100068016821F0DC
:1007800001010160002070472DE9F84F00224FF071
:10079000010803254FF00F0E0B6808FA02F42340FE
:1007A000A3426ED14E68012E05D0022E03D0112E29
:1007B00001D0122E12D186684FEA420C05FA0CF7CE
:1007C000BE43CF6807FA0CF7374387604668A643F5
:1007D0000C79C4F30014944034434460C668570055
:1007E00005FA07FC8C6826EA0C06BC403443C4605A
:1007F0004C68022C01D0122C13D1D40800EB8404D5
:10080000A346D4F8209054074FEAD46A0EFA0AF6A9
:1008100029EA06090E6906FA0AF646EA0906CBF83D
:10082000206006680C7926EA0C0604F00304BC403C
:10083000344304604C68E40065D5364C266846F4C1
:1008400080462660246822F0030604F48044009465
:10085000314C3444A446D4F808489607370F0EFAB2
:1008600007F6B4432D4EB04201D1002624E02C4EB1
:10087000B04201D101261FE02A4EB04202D1022629
:100880001AE040E0284EB04201D1032614E0274E82
:10089000B04201D104260FE0254EB04201D1052619
:1008A0000AE0244EB04201D1062605E0224EB042B5
:1008B00001D1072600E00826BE402643CCF8086890
:1008C0001E4E34684F689C43FF0300D51C433460C0
:1008D0001A4C241D26684F689E43BF0300D51E4353
:1008E0002660164E083634684F689C43FF0200D5D8
:1008F0001C433460114E0C3634684F689C43BF0271
:1009000000D51C433460521C102AFFF445AFBDE8EB
:10091000F88F0000443802400030014000000240DF
:100920000004024000080240000C02400010024097
:100930000014024000180240001C0240003C01402C
:1009400001488068704700000C0000200248816860
:1009500002781144816070470C0000200B4810B5EC
:10096000016841F400710160016841F48061016037
:10097000016841F480710160032000F06FF80020ED
:1009800000F006F800F024F8002010BD003C024002
:1009900070B50D4D04464FF47A712878B1FBF0F034
:1009A0000A490968B1FBF0F000F004FB48B9102CCB
:1009B00007D200222146501E00F030F800206C6063
:1009C00070BD012070BD00000C0000201800002048
:1009D0000A4808B5016841F480410160006800F4EC
:1009E000804000900548001F016841F0805101607F
:1009F000006800F08050009008BD000044380240BC
:100A0000002809DB00F01F0201219140400980000D
:100A100000F1E020C0F8001170470000F0B40E4B68
:100A20001B680C46C3F30223C3F10705042D00D94C
:100A30000425191D072901D2002300E0DB1E012631
:100A400006FA05F1491E214099409E40761E164047
:100A50003143F0BC00F085BE0CED00E0064900F02B
:100A6000070208684FF6FF03184040EA0220034AD5
:100A700010430860704700000CED00E00000FA052C
:100A80002DE9F0470E46050065D0DFF81481D8F84F
:100A90000000F7B200F00F00B04207D288F80070F3
:100AA000D8F8000000F00F00B04254D128683D4C47
:100AB000810712D5400703D5206840F4E05020603C
:100AC0002878000703D5206840F460402060206843
:100AD000A96820F0F000084320602878C0072DD0D6
:100AE000304968680839012812D0022813D0032839
:100AF00011D00968890700292DDA216821F0030146
:100B000001432160FFF71CFF814641F2883A0EE065
:100B100009688903EFE709688901ECE7FFF710FF2F
:100B2000A0EB0901514502D90320BDE8F0872068F8
:100B3000696800F00C00B0EB810FEFD1D8F800101D
:100B4000404601F00F01B14207D90770006800F07C
:100B50000F00B04201D00120E7E72878400705D513
:100B60002068E96820F4E0500843206028780007F6
:100B700006D52068296920F4604040EAC100206061
:100B800000F038F82168084AC1F30311515CC840ED
:100B90000649086006480068FFF7FAFE0020C4E72F
:100BA000003C024008380240E0170008180000200E
:100BB000100000200448054900680968044AC1F390
:100BC0008221515CC840704718000020083802405C
:100BD000F01700080448054900680968044AC1F391
:100BE0004231515CC840704718000020083802406C
:100BF000F0170008154810B5006810F00C021448F2
:100C000013D01449042A0FD0082A0ED10F4C241FE8
:100C10002268236802F03F025B0207D52068C0F318
:100C20008810A0FB010106E0084610BD2168C1F351
:100C30008811A1FB00010023FFF7C2FA2168C1F36C
:100C40000141491C4900B0FBF1F010BD08380240D9
:100C50000024F40040787D012DE9F84F04006ED0A7
:100C60002078DFF83C93C007A9F104054AD009F1C8
:100C700004000168C1F38101012908D00068C0F3B4
:100C8000810002280AD1D9F80000400206D5286860
:100C9000800337D560680028E1D033E06068B0F5A4
:100CA000803F10D0B0F5A02F286810D020F48030FD
:100CB0002860286820F4802028606068A8B1FFF7C9
:100CC0003FFE06460DE0286840F48030F4E740F42B
:100CD00080202860F7E700BFFFF732FE801B642802
:100CE00073D828688003F7D50CE0FFF729FE064685
:100CF00005E000BFFFF724FE801B6428F0D82868B9
:100D00008003F7D42078DFF89C8280074FF0000A38
:100D10003ED5A348001D016811F00C0F08D00068F3
:100D2000C0F3810002280BD1D9F80000400207D49B
:100D30002868800716D5E068012800D112E02BE171
:100D4000E068B8B10120C8F80000FFF7F9FD0646D9
:100D500005E000BFFFF7F4FD801B0228C0D828681B
:100D60008007F7D52868216920F0F80040EAC10023
:100D700028600DE0C8F800A0FFF7E2FD064604E099
:100D8000FFF7DEFD801B02281FD828688007F7D4F4
:100D90002078000722D5824E83486169703671B190
:100DA00001210160FFF7CCFD074604E0FFF7C8FD15
:100DB000C01B022809D830688007F7D50EE0C0F8BC
:100DC00000A0FFF7BDFD074605E082E0FFF7B8FD94
:100DD000C01B02287DD830688007F7D420784007F0
:100DE00068D5DFF8BCB100270BF13C0BDBF8000045
:100DF000C0000BD4DBF8001041F08051CBF800109C
:100E0000DBF80000012700F080500090674E30684A
:100E1000C00510D4306840F480703060FFF790FD5A
:100E2000009005E0FFF78CFD0099401A022850D889
:100E30003068C005F6D55A4EA0686C3601280FD030
:100E40000528306810D020F001003060306820F0B4
:100E500004003060A068B8B1FFF772FD00900FE0A9
:100E6000306840F00100F4E740F004003060F7E73C
:100E7000FFF766FD0099411A41F28830814266D839
:100E800030688007F4D50EE0FFF75AFD009007E0C8
:100E9000FFF756FD0099411A41F28830814256D839
:100EA00030688007F4D42FB1DBF8001021F08051B6
:100EB000CBF80010A069C8B33949091D0968C1F30E
:100EC000810102294AD00228504607D0C8F86000A4
:100ED00000E03CE0FFF734FD04463BE04746C8F83D
:100EE0006000FFF72DFD064605E000BFFFF728FD77
:100EF000801B02282BD828688001F7D4D4E9070189
:100F00000843A16A2A4A490802EB0141626A41EAA0
:100F10008211084394F82C1040EA0161C9F80010CE
:100F200001203866FFF70CFD044606E036E000BFFE
:100F3000FFF706FD001B022809D828688001F7D5B5
:100F40002CE000BFFFF7FCFC001B022802D90320A5
:100F5000BDE8F88F28688001F4D41FE00128F7D09D
:100F6000D9F80000E26900F48001914214D1226AAC
:100F700000F03F0191420FD147F6C071626A014013
:100F8000914209D1A26A00F44031914204D1E16A50
:100F900000F07060884201D00120D9E70020D7E737
:100FA0000438024000004742800E47420070004073
:100FB0000000FFFF10B5401EB0F1807F01D301207B
:100FC00010BD4FF0E02460610F21601700F0C9FBF5
:100FD0000020A06107202061002010BD70470000A4
:100FE00070B5026804461068D168536910F00F0F9D
:100FF00053D003F0010501F490762E435FD0C20771
:1010000005D0CA0503D5E26B42F00102E263420754
:1010100005D5DA0703D0E26B42F00202E2638207F1
:1010200005D5DA0703D0E26B42F00402E26302075F
:1010300007D501F020022A4303D0E26B42F00802F8
:10104000E263E26B002A34D0800604D5880602D51C
:10105000204600F073FA20684069E16BC0F380100D
:1010600001F008010143204624D000F015FA206861
:10107000416949061AD5416921F040014161606B1F
:10108000A0B11B490165606BFFF76CFB002810D015
:10109000606B016DBDE87040084783060FD58B0675
:1010A0000DD52046BDE8704000F048BA2046FFF755
:1010B00095FF70BDFFF792FF0020E06370BD03064F
:1010C00006D50B0604D52046BDE8704000F00ABBEB
:1010D0004006F3D54806F1D5D168204621F04001FD
:1010E000D160202184F8391000F0E4F870BD0000D0
:1010F0008914000870B5040004D094F83900002564
:1011000010B106E0012070BD84F83850204600F090
:1011100023F8242084F839002068C16821F40051A4
:10112000C160204600F034FA2068016921F4904142
:1011300001612068416921F02A0141612068C1688C
:1011400041F40051C160E563202084F8390084F83F
:101150003A00002070BD000070B586B0044614212E
:101160006846FFF765F82A4E2268002129480223C5
:1011700003240725B24222D1264A1432166846F0CB
:1011800010061660126802F010020592026842F022
:1011900001020260006802AA00F00100059082E8E6
:1011A00032006002CDE9000369461B48FFF7ECFA04
:1011B000002211462520FFF731FC252024E0174EA0
:1011C000B24223D1134A1032166846F40036166034
:1011D000126802F400320592026842F008020260CE
:1011E000006802AA00F00800059082E83200602042
:1011F000CDE9000369460A48FFF7C6FA0022114606
:101200002620FFF70BFC2620FFF7FAFB06B070BD87
:10121000001001403038024000000240004400400D
:10122000000C024090F83A30202B22D1F9B1F2B1F3
:1012300090F83830012B1CD081628285C285002154
:10124000C163222280F83A2080F838100168CA6809
:1012500042F48072CA6001684A6942F001024A6140
:101260000068C16841F02001C16000207047012082
:1012700070470220704790F83930202B18D1A9B15F
:10128000A2B190F83830012B12D001628284C2845E
:101290000021C163212280F8392080F838100068CD
:1012A000C16841F08001C160002070470120704793
:1012B000022070477047FEE70021A0F80012A0F856
:1012C00002127047B0F802228154B0F80212491C91
:1012D000C1F30801A0F8021270470000094808494C
:1012E00001602821416000218160C160016141618C
:1012F000017641768176C17601774177FFF7FAB8BA
:10130000006400401C0000200948084901602821B1
:10131000416000218160C1600161416101764176D7
:101320008176C17601774177FFF7E4B80068004025
:1013300044000020114808B5016841F080010160B7
:10134000016801F080010091016841F00101016034
:10135000016801F001010091016841F0080101609C
:10136000016801F008010091016841F0020101608B
:10137000006800F00200009008BD00003038024014
:101380000848074901604FF4E13141600021816064
:101390000C22C160C0E904128161C161FFF7AABEDD
:1013A000001001406C0000200848074901604FF41C
:1013B000E1314160002181600C22C160C0E904126A
:1013C0008161C161FFF796BE00440040C802002061
:1013D000FEE7704770477047FFF7B8BA30B593B073
:1013E00030216846FEF724FF14210CA8FEF720FFE9
:1013F0001A480025016841F080510160006800F042
:10140000805011901648016841F4804101600068E5
:10141000022400F480401190012000904FF4A0209D
:1014200001906005CDE9064014200890E001CDE967
:10143000090404200B906846FFF70EFC0CA90F204E
:1014400081E831004FF4A0500F90E0021090052188
:101450000CA8FFF715FB13B030BD00004038024068
:10146000007000400548016841F4700101600349C3
:101470004FF00060803908607047000088ED00E0A0
:1014800001221146FFF7CEBE10B5806B0021C18549
:10149000C184FFF7A3FD10BD0168CA6822F49072F1
:1014A000CA6001684A6922F001024A61202180F87D
:1014B0003A10704710B5134C11491420216081F87F
:1014C000540000200A1882F84000401CC0B21428C2
:1014D000F8D30B485630FFF7EFFE0B49002261604E
:1014E00081F8542010460B18401CC0B283F84020ED
:1014F0001428F8D30448BDE810405630FFF7DCBE8E
:101500006C00002000000020C802002090F8390084
:10151000202801D00020704701207047064B03F1BE
:101520005602984203D002F20623984202D1104696
:10153000FFF7C8BE704700006C00002010B590F89F
:101540003A10222901D0022010BD8168B1F5805FD8
:101550000AD0016900290168496817D001F07F01AC
:10156000FFF7DCFF002010BD0269816A002A0268D3
:10157000526805D0D2B20A80816A491C8162F1E7C3
:10158000C2F308020A80816A891CF7E7C9B2E7E75B
:101590002DE9F041044600680169E26821F44051F8
:1015A000114301612169A068E2690843616911433F
:1015B00008432168CA6849F20C639A430243CA602F
:1015C00020684169A26921F4407111434161E069D9
:1015D000192764253226B0F5004F354A3549206871
:1015E0004FF0000806D0884201D0904236D1FFF774
:1015F000F1FA35E0884201D0904202D1FFF7EAFAD1
:1016000001E0FFF7D7FA61684A18A0FB070148EB31
:101610000803FEF7D5FD0146B0FBF5F00201B1FB72
:10162000F5F06FF01803584301EB800006EBC000A3
:10163000B0FBF5F000F0F80002EB4002B1FBF5F072
:10164000584301EB800006EBC000B0FBF5F000F062
:101650000700216810448860BDE8F081FFF7AAFA0E
:1016600061688B0F8A00A0FB0701FEF7A9FD014608
:10167000B0FBF5F06FF01802504301EB800006EB71
:101680000010B0FBF5F000F0F002B1FBF5F002EB5A
:101690000012B1FBF5F06FF01803584301EB800026
:1016A00006EB0010B0FBF5F000F00F00D1E70000F2
:1016B00000140140001001400849884203D191F80C
:1016C0005420084605E00649884205D191F8542087
:1016D00008464031FFF7CFBD704700006C00002086
:1016E000C802002090F83910212901D0022070474B
:1016F0008168B1F5805F016A0BD04A1C0262026802
:1017000009785160C18C491E0904090CC1840ED0AE
:1017100017E009880268C1F30801516001690029D6
:10172000016A02D0491C0162ECE7891CFBE70168F1
:10173000CA6822F08002CA600068C16841F04001B6
:10174000C16000207047000001480068FFF748BCF6
:101750000000002001480068FFF742BC04000020A0
:10176000FEE70907090E002804DB00F1E02080F8FD
:101770000014704700F00F0000F1E02080F8141D05
:10178000704702E008C8121F08C1002AFAD170474A
:101790007047002001E001C1121F002AFBD17047F1
:1017A000FFF7DCF8FFF71AFEFFF7C4FDFFF796FD21
:1017B000FFF7AAFDFFF7E4FDFFF7F6FDFFF77AFE5E
:1017C0000648FFF75DFE02E00448FFF775FF034897
:1017D000FFF79CFE0028FAD0F6E700006C0000201E
:1017E00000000000000000000102030406070809D1
:1017F0000000000001020304181800080000002087
:101800001C00000082170008341800081C0000208B
:101810000C150000921700080000000000000000F6
:1018200000000000010000001000000000000000A7
:041830000024F4009C
:040000050800018965
:00000001FF
